{
  "_format": "hh-sol-artifact-1",
  "contractName": "VeilPayManager",
  "sourceName": "contracts/VeilPayManager.sol",
  "abi": [
    {
      "inputs": [],
      "stateMutability": "nonpayable",
      "type": "constructor"
    },
    {
      "inputs": [],
      "name": "EmptyBatch",
      "type": "error"
    },
    {
      "inputs": [],
      "name": "InvalidArrayLengths",
      "type": "error"
    },
    {
      "inputs": [
        {
          "internalType": "uint8",
          "name": "got",
          "type": "uint8"
        },
        {
          "internalType": "uint8",
          "name": "expected",
          "type": "uint8"
        }
      ],
      "name": "InvalidEncryptedInput",
      "type": "error"
    },
    {
      "inputs": [],
      "name": "InvalidKind",
      "type": "error"
    },
    {
      "inputs": [],
      "name": "NotCreator",
      "type": "error"
    },
    {
      "inputs": [],
      "name": "NotPending",
      "type": "error"
    },
    {
      "inputs": [],
      "name": "NotRecipient",
      "type": "error"
    },
    {
      "inputs": [],
      "name": "PayoutNotFound",
      "type": "error"
    },
    {
      "inputs": [
        {
          "internalType": "int32",
          "name": "value",
          "type": "int32"
        }
      ],
      "name": "SecurityZoneOutOfBounds",
      "type": "error"
    },
    {
      "inputs": [],
      "name": "ZeroAddressRecipient",
      "type": "error"
    },
    {
      "anonymous": false,
      "inputs": [
        {
          "indexed": true,
          "internalType": "uint256",
          "name": "batchId",
          "type": "uint256"
        },
        {
          "indexed": true,
          "internalType": "address",
          "name": "creator",
          "type": "address"
        },
        {
          "indexed": false,
          "internalType": "enum VeilPayManager.EntryKind",
          "name": "kind",
          "type": "uint8"
        },
        {
          "indexed": false,
          "internalType": "uint32",
          "name": "itemCount",
          "type": "uint32"
        },
        {
          "indexed": false,
          "internalType": "uint64",
          "name": "dueDate",
          "type": "uint64"
        },
        {
          "indexed": false,
          "internalType": "bytes32",
          "name": "metadataHash",
          "type": "bytes32"
        },
        {
          "indexed": false,
          "internalType": "address",
          "name": "settlementToken",
          "type": "address"
        }
      ],
      "name": "BatchCreated",
      "type": "event"
    },
    {
      "anonymous": false,
      "inputs": [
        {
          "indexed": true,
          "internalType": "uint256",
          "name": "payoutId",
          "type": "uint256"
        },
        {
          "indexed": true,
          "internalType": "address",
          "name": "creator",
          "type": "address"
        },
        {
          "indexed": true,
          "internalType": "address",
          "name": "viewer",
          "type": "address"
        }
      ],
      "name": "PayoutAccessGranted",
      "type": "event"
    },
    {
      "anonymous": false,
      "inputs": [
        {
          "indexed": true,
          "internalType": "uint256",
          "name": "payoutId",
          "type": "uint256"
        },
        {
          "indexed": true,
          "internalType": "address",
          "name": "creator",
          "type": "address"
        }
      ],
      "name": "PayoutCancelled",
      "type": "event"
    },
    {
      "anonymous": false,
      "inputs": [
        {
          "indexed": true,
          "internalType": "uint256",
          "name": "payoutId",
          "type": "uint256"
        },
        {
          "indexed": true,
          "internalType": "address",
          "name": "recipient",
          "type": "address"
        }
      ],
      "name": "PayoutClaimed",
      "type": "event"
    },
    {
      "anonymous": false,
      "inputs": [
        {
          "indexed": true,
          "internalType": "uint256",
          "name": "payoutId",
          "type": "uint256"
        },
        {
          "indexed": true,
          "internalType": "uint256",
          "name": "batchId",
          "type": "uint256"
        },
        {
          "indexed": true,
          "internalType": "address",
          "name": "creator",
          "type": "address"
        },
        {
          "indexed": false,
          "internalType": "address",
          "name": "recipient",
          "type": "address"
        },
        {
          "indexed": false,
          "internalType": "enum VeilPayManager.EntryKind",
          "name": "kind",
          "type": "uint8"
        },
        {
          "indexed": false,
          "internalType": "uint64",
          "name": "dueDate",
          "type": "uint64"
        },
        {
          "indexed": false,
          "internalType": "bytes32",
          "name": "metadataHash",
          "type": "bytes32"
        },
        {
          "indexed": false,
          "internalType": "address",
          "name": "settlementToken",
          "type": "address"
        }
      ],
      "name": "PayoutCreated",
      "type": "event"
    },
    {
      "inputs": [],
      "name": "ZERO_AMOUNT",
      "outputs": [
        {
          "internalType": "euint64",
          "name": "",
          "type": "uint256"
        }
      ],
      "stateMutability": "view",
      "type": "function"
    },
    {
      "inputs": [
        {
          "internalType": "uint256",
          "name": "payoutId",
          "type": "uint256"
        }
      ],
      "name": "cancelPayout",
      "outputs": [],
      "stateMutability": "nonpayable",
      "type": "function"
    },
    {
      "inputs": [
        {
          "internalType": "uint256",
          "name": "payoutId",
          "type": "uint256"
        }
      ],
      "name": "claimPayout",
      "outputs": [],
      "stateMutability": "nonpayable",
      "type": "function"
    },
    {
      "inputs": [
        {
          "internalType": "address[]",
          "name": "recipients",
          "type": "address[]"
        },
        {
          "components": [
            {
              "internalType": "uint256",
              "name": "ctHash",
              "type": "uint256"
            },
            {
              "internalType": "uint8",
              "name": "securityZone",
              "type": "uint8"
            },
            {
              "internalType": "uint8",
              "name": "utype",
              "type": "uint8"
            },
            {
              "internalType": "bytes",
              "name": "signature",
              "type": "bytes"
            }
          ],
          "internalType": "struct InEuint64[]",
          "name": "encryptedAmounts",
          "type": "tuple[]"
        },
        {
          "internalType": "bytes32[]",
          "name": "metadataHashes",
          "type": "bytes32[]"
        },
        {
          "internalType": "address",
          "name": "settlementToken",
          "type": "address"
        },
        {
          "internalType": "uint64",
          "name": "dueDate",
          "type": "uint64"
        },
        {
          "internalType": "enum VeilPayManager.EntryKind",
          "name": "kind",
          "type": "uint8"
        },
        {
          "internalType": "bytes32",
          "name": "batchMetadataHash",
          "type": "bytes32"
        }
      ],
      "name": "createBatchPayouts",
      "outputs": [
        {
          "internalType": "uint256",
          "name": "batchId",
          "type": "uint256"
        },
        {
          "internalType": "uint256[]",
          "name": "payoutIds",
          "type": "uint256[]"
        }
      ],
      "stateMutability": "nonpayable",
      "type": "function"
    },
    {
      "inputs": [
        {
          "internalType": "address",
          "name": "recipient",
          "type": "address"
        },
        {
          "components": [
            {
              "internalType": "uint256",
              "name": "ctHash",
              "type": "uint256"
            },
            {
              "internalType": "uint8",
              "name": "securityZone",
              "type": "uint8"
            },
            {
              "internalType": "uint8",
              "name": "utype",
              "type": "uint8"
            },
            {
              "internalType": "bytes",
              "name": "signature",
              "type": "bytes"
            }
          ],
          "internalType": "struct InEuint64",
          "name": "encryptedAmount",
          "type": "tuple"
        },
        {
          "internalType": "bytes32",
          "name": "metadataHash",
          "type": "bytes32"
        },
        {
          "internalType": "address",
          "name": "settlementToken",
          "type": "address"
        },
        {
          "internalType": "uint64",
          "name": "dueDate",
          "type": "uint64"
        },
        {
          "internalType": "enum VeilPayManager.EntryKind",
          "name": "kind",
          "type": "uint8"
        }
      ],
      "name": "createConfidentialPayout",
      "outputs": [
        {
          "internalType": "uint256",
          "name": "payoutId",
          "type": "uint256"
        }
      ],
      "stateMutability": "nonpayable",
      "type": "function"
    },
    {
      "inputs": [
        {
          "internalType": "uint256",
          "name": "batchId",
          "type": "uint256"
        }
      ],
      "name": "getBatchPayoutIds",
      "outputs": [
        {
          "internalType": "uint256[]",
          "name": "",
          "type": "uint256[]"
        }
      ],
      "stateMutability": "view",
      "type": "function"
    },
    {
      "inputs": [
        {
          "internalType": "uint256",
          "name": "batchId",
          "type": "uint256"
        }
      ],
      "name": "getBatchSummary",
      "outputs": [
        {
          "components": [
            {
              "internalType": "uint256",
              "name": "id",
              "type": "uint256"
            },
            {
              "internalType": "address",
              "name": "creator",
              "type": "address"
            },
            {
              "internalType": "address",
              "name": "settlementToken",
              "type": "address"
            },
            {
              "internalType": "bytes32",
              "name": "metadataHash",
              "type": "bytes32"
            },
            {
              "internalType": "enum VeilPayManager.EntryKind",
              "name": "kind",
              "type": "uint8"
            },
            {
              "internalType": "uint64",
              "name": "dueDate",
              "type": "uint64"
            },
            {
              "internalType": "uint64",
              "name": "createdAt",
              "type": "uint64"
            },
            {
              "internalType": "uint32",
              "name": "itemCount",
              "type": "uint32"
            }
          ],
          "internalType": "struct VeilPayManager.BatchSummary",
          "name": "",
          "type": "tuple"
        }
      ],
      "stateMutability": "view",
      "type": "function"
    },
    {
      "inputs": [
        {
          "internalType": "address",
          "name": "creator",
          "type": "address"
        }
      ],
      "name": "getCreatorPayoutIds",
      "outputs": [
        {
          "internalType": "uint256[]",
          "name": "",
          "type": "uint256[]"
        }
      ],
      "stateMutability": "view",
      "type": "function"
    },
    {
      "inputs": [
        {
          "internalType": "uint256",
          "name": "payoutId",
          "type": "uint256"
        }
      ],
      "name": "getPayoutAmountHandle",
      "outputs": [
        {
          "internalType": "euint64",
          "name": "",
          "type": "uint256"
        }
      ],
      "stateMutability": "view",
      "type": "function"
    },
    {
      "inputs": [
        {
          "internalType": "uint256",
          "name": "payoutId",
          "type": "uint256"
        }
      ],
      "name": "getPayoutSummary",
      "outputs": [
        {
          "components": [
            {
              "internalType": "uint256",
              "name": "id",
              "type": "uint256"
            },
            {
              "internalType": "uint256",
              "name": "batchId",
              "type": "uint256"
            },
            {
              "internalType": "address",
              "name": "creator",
              "type": "address"
            },
            {
              "internalType": "address",
              "name": "recipient",
              "type": "address"
            },
            {
              "internalType": "address",
              "name": "settlementToken",
              "type": "address"
            },
            {
              "internalType": "bytes32",
              "name": "metadataHash",
              "type": "bytes32"
            },
            {
              "internalType": "enum VeilPayManager.EntryKind",
              "name": "kind",
              "type": "uint8"
            },
            {
              "internalType": "enum VeilPayManager.PayoutStatus",
              "name": "status",
              "type": "uint8"
            },
            {
              "internalType": "uint64",
              "name": "dueDate",
              "type": "uint64"
            },
            {
              "internalType": "uint64",
              "name": "createdAt",
              "type": "uint64"
            }
          ],
          "internalType": "struct VeilPayManager.PayoutSummary",
          "name": "",
          "type": "tuple"
        }
      ],
      "stateMutability": "view",
      "type": "function"
    },
    {
      "inputs": [
        {
          "internalType": "address",
          "name": "recipient",
          "type": "address"
        }
      ],
      "name": "getRecipientPayoutIds",
      "outputs": [
        {
          "internalType": "uint256[]",
          "name": "",
          "type": "uint256[]"
        }
      ],
      "stateMutability": "view",
      "type": "function"
    },
    {
      "inputs": [
        {
          "internalType": "address",
          "name": "viewer",
          "type": "address"
        }
      ],
      "name": "getViewerPayoutIds",
      "outputs": [
        {
          "internalType": "uint256[]",
          "name": "",
          "type": "uint256[]"
        }
      ],
      "stateMutability": "view",
      "type": "function"
    },
    {
      "inputs": [
        {
          "internalType": "uint256",
          "name": "payoutId",
          "type": "uint256"
        },
        {
          "internalType": "address",
          "name": "viewer",
          "type": "address"
        }
      ],
      "name": "grantPayoutAccess",
      "outputs": [],
      "stateMutability": "nonpayable",
      "type": "function"
    },
    {
      "inputs": [],
      "name": "nextBatchId",
      "outputs": [
        {
          "internalType": "uint256",
          "name": "",
          "type": "uint256"
        }
      ],
      "stateMutability": "view",
      "type": "function"
    },
    {
      "inputs": [],
      "name": "nextPayoutId",
      "outputs": [
        {
          "internalType": "uint256",
          "name": "",
          "type": "uint256"
        }
      ],
      "stateMutability": "view",
      "type": "function"
    },
    {
      "inputs": [],
      "name": "totalBatchesCreated",
      "outputs": [
        {
          "internalType": "uint256",
          "name": "",
          "type": "uint256"
        }
      ],
      "stateMutability": "view",
      "type": "function"
    },
    {
      "inputs": [],
      "name": "totalPayoutsCreated",
      "outputs": [
        {
          "internalType": "uint256",
          "name": "",
          "type": "uint256"
        }
      ],
      "stateMutability": "view",
      "type": "function"
    },
    {
      "inputs": [
        {
          "internalType": "uint256",
          "name": "",
          "type": "uint256"
        },
        {
          "internalType": "address",
          "name": "",
          "type": "address"
        }
      ],
      "name": "viewerAuthorized",
      "outputs": [
        {
          "internalType": "bool",
          "name": "",
          "type": "bool"
        }
      ],
      "stateMutability": "view",
      "type": "function"
    }
  ],
  "bytecode": "0x608034610165576001808055600255602081810191906001600160401b0390818411838510176101475760409384525f835283519260808401848110848211176101475785526003845281840160603682378451156101b0575f90528351600110156101b0576005858501528351600210156101b0576100c2845f60606100b09701528651958693631888debd60e01b855260056004860152601a60248601526080604486015260848501906101c4565b838103600319016064850152906101c4565b0392818173ea30c4b8b44078bbf8a6ef5b9f1ec1626c7848d995815f885af19182156101a6575f92610169575b5050805f55823b15610165575f926044849286519586938492631974142760e21b845260048401523060248401525af1801561015b57610138575b825161198d90816101f88239f35b81116101475781525f8061012a565b634e487b7160e01b5f52604160045260245ffd5b83513d5f823e3d90fd5b5f80fd5b809192503d821161019f575b601f8101601f19168301908482118483101761014757839187528101031261016557515f806100ef565b503d610175565b85513d5f823e3d90fd5b634e487b7160e01b5f52603260045260245ffd5b9081518082526020808093019301915f5b8281106101e3575050505090565b8351855293810193928101926001016101d556fe60a0806040526004361015610012575f80fd5b5f3560e01c90816325931b911461166f5750806338e98a29146115385780633a1f7b44146114c657806351ef8cfb1461149d57806354175a641461143957806358535998146113b35780635e6c9c43146113705780636cc524a41461129757806370f32217146111fe5780637c80c0ca14610ced57806383f5a23914610b365780638462a7f814610b195780638a69614e14610a55578063d8c1c793146101a5578063daaf87f21461015c578063f3f9d8481461013f578063f6fa5450146101235763ff74aac7146100e2575f80fd5b3461011f575f36600319011261011f576002545f19810190811161010b57602090604051908152f35b634e487b7160e01b5f52601160045260245ffd5b5f80fd5b3461011f575f36600319011261011f5760205f54604051908152f35b3461011f575f36600319011261011f576020600154604051908152f35b3461011f57604036600319011261011f576101756116f2565b6004355f52600760205260405f209060018060a01b03165f52602052602060ff60405f2054166040519015158152f35b3461011f5760e036600319011261011f576004356001600160401b03811161011f576101d5903690600401611774565b906024356001600160401b03811161011f576101f5903690600401611774565b6044939193356001600160401b03811161011f57610217903690600401611774565b9094610221611708565b9161022a61175e565b91600560a435101561011f578515610a4357848614801590610a39575b610a2757600460ff60a4351611610a1557600254608052610269608051611882565b60025561027586611890565b96610283604051988961180a565b86885261028f87611890565b601f19013660208a01376040516102a5816117a4565b6080805182523360208301526001600160a01b038716604083015260c43560608301526102d79060a43590830161182b565b6001600160401b03851660a08201526001600160401b03421660c082015263ffffffff881660e08201526080515f52600960205260405f20908051825560018060a01b036020820151166001600160601b0360a01b6001840154161760018301556002820160018060a01b036040830151166001600160601b0360a01b825416179055606081015160038301556080810151906005821015610a01576103816004928385016118a7565b60a0810151908284015468ffffffffffffffff0070ffffffffffffffff00000000000000000060c084015160481b169260e063ffffffff60881b91015160881b169360081b1690610100600160a81b0319161717179101556040516103e88160a435611751565b63ffffffff881660208201526001600160401b038516604082015260c435606082015260018060a01b038616608082015233907f6880f4848ae4b2ef35e0489ac8b1273925238e70a9e8a7ea37dd95042f01a5f360a060805192a35f5b8781106104705761046c89604051918291608051835260406020840152604083019061171e565b0390f35b6001600160a01b0361048b610486838b866118bf565b6118cf565b16156109ef5761049f610486828a856118bf565b9087811015610944578060051b84013591607e198536030183121561011f576104cd82878e958801956118bf565b35600154935f906104dd86611882565b60015560808136031261011f57604051906104f7826117ef565b8035825261050760208201611949565b602083015261051860408201611949565b604083015260608101356001600160401b03811161011f5736601f82840101121561011f576001600160401b0381830135116109db576040519161056982820135601f01601f19166020018461180a565b80820180358085523691016020011161011f575f91602091808201803590840186850137013583010152606082015260ff604082015116600581036109bc5750602060609182806040516105bc816117ef565b5f81525f858201525f604082015201528051908360ff848301511691015190604051926105e8846117ef565b83528383015260056040830152838201526040519283916313fce3b160e11b8352604060048401528051604484015260ff8482015116606484015260ff60408201511660848401520151608060a48301528181518060c4830152808560e494018484015e5f838284010152336024830152601f801991011681010301815f73ea30c4b8b44078bbf8a6ef5b9f1ec1626c7848d95af190811561097f575f9161098a575b5073ea30c4b8b44078bbf8a6ef5b9f1ec1626c7848d93b1561011f57604051631974142760e21b8152600481018290523060248201525f816044818373ea30c4b8b44078bbf8a6ef5b9f1ec1626c7848d95af1801561097f5761096c575b506106f433826118e3565b6106fe84826118e3565b6040519061070b826117c0565b6080805183523360208401526001600160a01b0386811660408501528d166060840152820184905261074260a43560a0840161182b565b8260c08301526001600160401b038b1660e08301526001600160401b03421661010083015261012082015285825260036020526040822090805182556001820160018060a01b036020830151166001600160601b0360a01b8254161790556002820160018060a01b036040830151166001600160601b0360a01b8254161790556003820160018060a01b036060830151166001600160601b0360a01b8254161790556080810151600483015560a081015160058110156109585761080990600584016118a7565b60c0810151600381101561095857928260066101206040946108326108a59860058e9901611863565b60e0810151600585015469ffffffffffffffff00006001600160401b0360501b61010085015160501b169260101b169062010000600160901b031916171760058501550151910155338152600460205261088e83838320611837565b6001600160a01b0386168152600560205220611837565b6040516001600160a01b0390921682526108c46020830160a435611751565b6001600160401b0388166040830152606082015260018060a01b03881660808201523390837f62b2d3d34f840434d84e4954ebc0ada648ee7914a6e96ca1071004f9d73fad1060a060805193a489518110156109445761093e8260019360208d8560051b0101526080515f52600860205260405f20611837565b01610445565b634e487b7160e01b5f52603260045260245ffd5b634e487b7160e01b84526021600452602484fd5b6109779192506117dc565b5f908f6106e9565b6040513d5f823e3d90fd5b90506020813d6020116109b4575b816109a56020938361180a565b8101031261011f57518f61068b565b3d9150610998565b604490604051906367cf307160e01b8252600482015260056024820152fd5b634e487b7160e01b5f52604160045260245ffd5b6040516308c9926560e31b8152600490fd5b634e487b7160e01b5f52602160045260245ffd5b6040516302b79ed360e41b8152600490fd5b60405163a9854bc960e01b8152600490fd5b5081861415610247565b60405163c2e5347d60e01b8152600490fd5b3461011f57602036600319011261011f576004355f81815260036020526040902060018101546001600160a01b0390811615610b07576002820154163303610af557600501805460ff8160081c166003811015610a0157610ae35761ff00191661010017905533907f3d22404c1cc25bf89323ad45c5293c2188927fa7850f0f796fefd2deda0f7ba25f80a3005b604051633ee3282d60e11b8152600490fd5b60405163586d335760e01b8152600490fd5b604051631c4ba4f560e31b8152600490fd5b3461011f575f36600319011261011f576020600254604051908152f35b3461011f57602036600319011261011f576004355f610120604051610b5a816117c0565b8281528260208201528260408201528260608201528260808201528260a08201528260c08201528260e0820152826101008201520152805f52600360205260405f2060018060a01b03600182015416908115610b075780546002820154600383015460048401546005909401546040519690956001600160a01b0392831694939092169290610be8886117c0565b8752602087015260408601526060850152608084015260a0830152610c1360ff821660c0840161182b565b600360ff8260081c161015610a01578060ff6001600160401b039260081c1660e0840152818160101c1661010084015260501c16610120820152604051815181526020820151602082015260018060a01b03604083015116604082015260018060a01b03606083015116606082015260018060a01b03608083015116608082015260a082015160a0820152610cb060c083015160c0830190611751565b60e0820151916003831015610a01576101206001600160401b03916101409460e08501528261010082015116610100850152015116610120820152f35b3461011f5760031960c03682011261011f57610d076116dc565b906001600160401b036024351161011f576080906024353603011261011f57610d2e611708565b610d3661175e565b91600560a435101561011f576001600160a01b038116156109ef57600460ff60a4351611610a15575f60015492610d6c84611882565b600155604051610d7b816117ef565b602435600401358152610d916024803501611949565b6020820152610da4604460243501611949565b6040820152606460243501356001600160401b03811161011f57366023826024350101121561011f576001600160401b03600482602435010135116109db5760405190610e03602435820160040135601f01601f19166020018361180a565b600460248035830191820135808552369201011161011f576020600482815f94602435010135602482813501018487013760243501013583010152606082015260ff604082015116600581036109bc5750602060ff91606080604051610e68816117ef565b5f81525f858201525f6040820152015260e4815183606086828601511694015160405192610e95846117ef565b83528183019485528660408401600581526060850192835260405198899788966313fce3b160e11b885260406004890152516044880152511660648601525116608484015251608060a484015280519182918260c4860152018484015e5f838284010152336024830152601f801991011681010301815f73ea30c4b8b44078bbf8a6ef5b9f1ec1626c7848d95af190811561097f575f916111cc575b5073ea30c4b8b44078bbf8a6ef5b9f1ec1626c7848d93b1561011f57604051631974142760e21b8152600481018290523060248201525f816044818373ea30c4b8b44078bbf8a6ef5b9f1ec1626c7848d95af1801561097f576111b9575b50610f9a33826118e3565b610fa484826118e3565b60405190610fb1826117c0565b8382523360208301526001600160a01b038581166040840152831660608301526044356080830152610fe860a43560a0840161182b565b8360c08301526001600160401b03871660e08301526101008201916001600160401b0342168352610120810191825286855260036020526040852092815184556001840160018060a01b03602084015116906001600160601b0360a01b91828254161790556002850160018060a01b0360408501511682825416179055600385019060018060a01b036060850151169082541617905560808201516004850155600584019160a081015160058110156111a5576110a590846118a7565b60c081015160038110156111a5579260069260e060209c96936110d16001600160401b03999785611863565b01519069ffffffffffffffff00008354918960501b905160501b169260101b169062010000600160901b03191617179055519101553384526004875261111a8660408620611837565b6001600160a01b03851684526005875260408420611139908790611837565b6040516001600160a01b03909516855261115787860160a435611751565b16604084015260443560608401526001600160a01b03166080830152339183907f62b2d3d34f840434d84e4954ebc0ada648ee7914a6e96ca1071004f9d73fad109060a090a4604051908152f35b634e487b7160e01b88526021600452602488fd5b6111c49193506117dc565b5f9186610f8f565b90506020813d6020116111f6575b816111e76020938361180a565b8101031261011f575186610f31565b3d91506111da565b3461011f57602036600319011261011f576004355f81815260036020526040902060018101546001600160a01b03168015610b0757330361128557600501805460ff8160081c166003811015610a0157610ae35761ff00191661020017905533907feb995b74cd54ded71e89fd86a0333befd8019d4ebf8ca2e059bc7a67d36e7b675f80a3005b6040516393687c0b60e01b8152600490fd5b3461011f57604036600319011261011f576004356112b36116f2565b90805f526020916003835260405f209060018060a01b03806001840154168015610b075733036112855781169384156109ef5761131392600691855f526007815260405f20875f52815260ff60405f2054161561133b575b5001546118e3565b33907f15ce2d4439399e775107d7fad6988351090125a5b539efc7eb6caf011ae264655f80a4005b8290865f526007815260405f20885f52815260405f20600160ff198254161790555261136a8560405f20611837565b8661130b565b3461011f57602036600319011261011f576004355f90815260036020526040902060018101546001600160a01b031615610b075760066020910154604051908152f35b3461011f5760208060031936011261011f576001600160a01b036113d56116dc565b165f526005815260405f20906040518083838295549384815201905f52835f20925f5b858282106114235750505061140f9250038361180a565b61046c60405192828493845283019061171e565b85548452600195860195889550930192016113f8565b3461011f5760208060031936011261011f576004355f526008815260405f20906040518083838295549384815201905f52835f20925f5b858282106114875750505061140f9250038361180a565b8554845260019586019588955093019201611470565b3461011f575f36600319011261011f576001545f19810190811161010b57602090604051908152f35b3461011f5760208060031936011261011f576001600160a01b036114e86116dc565b165f526006815260405f20906040518083838295549384815201905f52835f20925f5b858282106115225750505061140f9250038361180a565b855484526001958601958895509301920161150b565b3461011f57602036600319011261011f575f60e0604051611558816117a4565b8281528260208201528260408201528260608201528260808201528260a08201528260c082015201526004355f52600960205260405f2060405161159b816117a4565b8154815260018060a01b0391826001820154166020830190815283600283015416906040840191825260046003840154936060860194855201549160808501906115e860ff85168361182b565b6001600160401b039260a0870190848660081c16825260c0880193858760481c16855263ffffffff978860e08b019860881c1688528a83511615610b07578a87956101009c61165895604051809e519052511660208d0152511660408b01525160608a0152516080890190611751565b511660a0860152511660c0840152511660e0820152f35b3461011f5760208060031936011261011f576001600160a01b036116916116dc565b165f526004815260405f2082815491828252838201905f52835f20925f5b858282106116c65750505061140f9250038361180a565b85548452600195860195889550930192016116af565b600435906001600160a01b038216820361011f57565b602435906001600160a01b038216820361011f57565b606435906001600160a01b038216820361011f57565b9081518082526020808093019301915f5b82811061173d575050505090565b83518552938101939281019260010161172f565b906005821015610a015752565b608435906001600160401b038216820361011f57565b9181601f8401121561011f578235916001600160401b03831161011f576020808501948460051b01011161011f57565b61010081019081106001600160401b038211176109db57604052565b61014081019081106001600160401b038211176109db57604052565b6001600160401b0381116109db57604052565b608081019081106001600160401b038211176109db57604052565b90601f801991011681019081106001600160401b038211176109db57604052565b6005821015610a015752565b805490680100000000000000008210156109db5760018201808255821015610944575f5260205f200155565b906003811015610a015761ff0082549160081b169061ff001916179055565b5f19811461010b5760010190565b6001600160401b0381116109db5760051b60200190565b906005811015610a015760ff80198354169116179055565b91908110156109445760051b0190565b356001600160a01b038116810361011f5790565b73ea30c4b8b44078bbf8a6ef5b9f1ec1626c7848d991823b1561011f57604051631974142760e21b815260048101929092526001600160a01b03166024820152905f908290604490829084905af1801561097f5761193e5750565b611947906117dc565b565b359060ff8216820361011f5756fea26469706673582212207ce29a518e42f0a76b4d32266fbf46ac97a4e2d6be6cd4c3b57a6947048c9fe064736f6c63430008190033",
  "linkReferences": {},
  "deployedLinkReferences": {}
}